{
  "contractName": "ParkingRental",
  "abi": [
    {
      "inputs": [],
      "stateMutability": "nonpayable",
      "type": "constructor"
    },
    {
      "inputs": [],
      "name": "owner",
      "outputs": [
        {
          "internalType": "address",
          "name": "",
          "type": "address"
        }
      ],
      "stateMutability": "view",
      "type": "function",
      "constant": true
    },
    {
      "inputs": [
        {
          "internalType": "uint256",
          "name": "",
          "type": "uint256"
        }
      ],
      "name": "parkingSpots",
      "outputs": [
        {
          "internalType": "uint256",
          "name": "id",
          "type": "uint256"
        },
        {
          "internalType": "string",
          "name": "location",
          "type": "string"
        },
        {
          "internalType": "uint256",
          "name": "pricePerHour",
          "type": "uint256"
        },
        {
          "internalType": "bool",
          "name": "isAvailable",
          "type": "bool"
        },
        {
          "internalType": "address",
          "name": "renter",
          "type": "address"
        }
      ],
      "stateMutability": "view",
      "type": "function",
      "constant": true
    },
    {
      "inputs": [
        {
          "internalType": "uint256",
          "name": "_id",
          "type": "uint256"
        },
        {
          "internalType": "string",
          "name": "_location",
          "type": "string"
        },
        {
          "internalType": "uint256",
          "name": "_pricePerHour",
          "type": "uint256"
        }
      ],
      "name": "addParkingSpot",
      "outputs": [],
      "stateMutability": "nonpayable",
      "type": "function"
    },
    {
      "inputs": [
        {
          "internalType": "uint256",
          "name": "_id",
          "type": "uint256"
        }
      ],
      "name": "reserveParkingSpot",
      "outputs": [],
      "stateMutability": "payable",
      "type": "function",
      "payable": true
    },
    {
      "inputs": [
        {
          "internalType": "uint256",
          "name": "_id",
          "type": "uint256"
        }
      ],
      "name": "releaseParkingSpot",
      "outputs": [],
      "stateMutability": "nonpayable",
      "type": "function"
    }
  ],
  "bytecode": "0x608060405234801561001057600080fd5b50336000806101000a81548173ffffffffffffffffffffffffffffffffffffffff021916908373ffffffffffffffffffffffffffffffffffffffff160217905550610fc4806100606000396000f3fe60806040526004361061004a5760003560e01c80634b7cb09f1461004f5780637d9282df1461006b5780638089aaba146100945780638da5cb5b146100bd578063f5defcd3146100e8575b600080fd5b610069600480360381019061006491906106bb565b610129565b005b34801561007757600080fd5b50610092600480360381019061008d91906106bb565b610258565b005b3480156100a057600080fd5b506100bb60048036038101906100b6919061082e565b610383565b005b3480156100c957600080fd5b506100d2610562565b6040516100df91906108de565b60405180910390f35b3480156100f457600080fd5b5061010f600480360381019061010a91906106bb565b610586565b6040516101209594939291906109a2565b60405180910390f35b6001600082815260200190815260200160002060030160009054906101000a900460ff1661018c576040517f08c379a000000000000000000000000000000000000000000000000000000000815260040161018390610a6e565b60405180910390fd5b6127103410156101d1576040517f08c379a00000000000000000000000000000000000000000000000000000000081526004016101c890610ada565b60405180910390fd5b60006001600083815260200190815260200160002060030160006101000a81548160ff021916908315150217905550336001600083815260200190815260200160002060030160016101000a81548173ffffffffffffffffffffffffffffffffffffffff021916908373ffffffffffffffffffffffffffffffffffffffff16021790555050565b6001600082815260200190815260200160002060030160019054906101000a900473ffffffffffffffffffffffffffffffffffffffff1673ffffffffffffffffffffffffffffffffffffffff163373ffffffffffffffffffffffffffffffffffffffff16146102fc576040517f08c379a00000000000000000000000000000000000000000000000000000000081526004016102f390610b6c565b60405180910390fd5b600180600083815260200190815260200160002060030160006101000a81548160ff02191690831515021790555060006001600083815260200190815260200160002060030160016101000a81548173ffffffffffffffffffffffffffffffffffffffff021916908373ffffffffffffffffffffffffffffffffffffffff16021790555050565b60008054906101000a900473ffffffffffffffffffffffffffffffffffffffff1673ffffffffffffffffffffffffffffffffffffffff163373ffffffffffffffffffffffffffffffffffffffff1614610411576040517f08c379a000000000000000000000000000000000000000000000000000000000815260040161040890610bfe565b60405180910390fd5b6001600084815260200190815260200160002060030160009054906101000a900460ff1615610475576040517f08c379a000000000000000000000000000000000000000000000000000000000815260040161046c90610c90565b60405180910390fd5b6040518060a00160405280848152602001838152602001828152602001600115158152602001600073ffffffffffffffffffffffffffffffffffffffff16815250600160008581526020019081526020016000206000820151816000015560208201518160010190816104e89190610ebc565b506040820151816002015560608201518160030160006101000a81548160ff02191690831515021790555060808201518160030160016101000a81548173ffffffffffffffffffffffffffffffffffffffff021916908373ffffffffffffffffffffffffffffffffffffffff160217905550905050505050565b60008054906101000a900473ffffffffffffffffffffffffffffffffffffffff1681565b60016020528060005260406000206000915090508060000154908060010180546105af90610cdf565b80601f01602080910402602001604051908101604052809291908181526020018280546105db90610cdf565b80156106285780601f106105fd57610100808354040283529160200191610628565b820191906000526020600020905b81548152906001019060200180831161060b57829003601f168201915b5050505050908060020154908060030160009054906101000a900460ff16908060030160019054906101000a900473ffffffffffffffffffffffffffffffffffffffff16905085565b6000604051905090565b600080fd5b600080fd5b6000819050919050565b61069881610685565b81146106a357600080fd5b50565b6000813590506106b58161068f565b92915050565b6000602082840312156106d1576106d061067b565b5b60006106df848285016106a6565b91505092915050565b600080fd5b600080fd5b6000601f19601f8301169050919050565b7f4e487b7100000000000000000000000000000000000000000000000000000000600052604160045260246000fd5b61073b826106f2565b810181811067ffffffffffffffff8211171561075a57610759610703565b5b80604052505050565b600061076d610671565b90506107798282610732565b919050565b600067ffffffffffffffff82111561079957610798610703565b5b6107a2826106f2565b9050602081019050919050565b82818337600083830152505050565b60006107d16107cc8461077e565b610763565b9050828152602081018484840111156107ed576107ec6106ed565b5b6107f88482856107af565b509392505050565b600082601f830112610815576108146106e8565b5b81356108258482602086016107be565b91505092915050565b6000806000606084860312156108475761084661067b565b5b6000610855868287016106a6565b935050602084013567ffffffffffffffff81111561087657610875610680565b5b61088286828701610800565b9250506040610893868287016106a6565b9150509250925092565b600073ffffffffffffffffffffffffffffffffffffffff82169050919050565b60006108c88261089d565b9050919050565b6108d8816108bd565b82525050565b60006020820190506108f360008301846108cf565b92915050565b61090281610685565b82525050565b600081519050919050565b600082825260208201905092915050565b60005b83811015610942578082015181840152602081019050610927565b60008484015250505050565b600061095982610908565b6109638185610913565b9350610973818560208601610924565b61097c816106f2565b840191505092915050565b60008115159050919050565b61099c81610987565b82525050565b600060a0820190506109b760008301886108f9565b81810360208301526109c9818761094e565b90506109d860408301866108f9565b6109e56060830185610993565b6109f260808301846108cf565b9695505050505050565b7f54686973207061726b696e672073706f74206973206e6f7420617661696c616260008201527f6c652e0000000000000000000000000000000000000000000000000000000000602082015250565b6000610a58602383610913565b9150610a63826109fc565b604082019050919050565b60006020820190508181036000830152610a8781610a4b565b9050919050565b7f496e636f7272656374207061796d656e7420616d6f756e742e00000000000000600082015250565b6000610ac4601983610913565b9150610acf82610a8e565b602082019050919050565b60006020820190508181036000830152610af381610ab7565b9050919050565b7f4f6e6c79207468652072656e7465722063616e2072656c65617365207468652060008201527f7061726b696e672073706f742e00000000000000000000000000000000000000602082015250565b6000610b56602d83610913565b9150610b6182610afa565b604082019050919050565b60006020820190508181036000830152610b8581610b49565b9050919050565b7f4f6e6c79206f776e65722063616e20616464207061726b696e672073706f747360008201527f2e00000000000000000000000000000000000000000000000000000000000000602082015250565b6000610be8602183610913565b9150610bf382610b8c565b604082019050919050565b60006020820190508181036000830152610c1781610bdb565b9050919050565b7f5061726b696e672073706f742077697468207468697320696420616c7265616460008201527f79206578697374732e0000000000000000000000000000000000000000000000602082015250565b6000610c7a602983610913565b9150610c8582610c1e565b604082019050919050565b60006020820190508181036000830152610ca981610c6d565b9050919050565b7f4e487b7100000000000000000000000000000000000000000000000000000000600052602260045260246000fd5b60006002820490506001821680610cf757607f821691505b602082108103610d0a57610d09610cb0565b5b50919050565b60008190508160005260206000209050919050565b60006020601f8301049050919050565b600082821b905092915050565b600060088302610d727fffffffffffffffffffffffffffffffffffffffffffffffffffffffffffffffff82610d35565b610d7c8683610d35565b95508019841693508086168417925050509392505050565b6000819050919050565b6000610db9610db4610daf84610685565b610d94565b610685565b9050919050565b6000819050919050565b610dd383610d9e565b610de7610ddf82610dc0565b848454610d42565b825550505050565b600090565b610dfc610def565b610e07818484610dca565b505050565b5b81811015610e2b57610e20600082610df4565b600181019050610e0d565b5050565b601f821115610e7057610e4181610d10565b610e4a84610d25565b81016020851015610e59578190505b610e6d610e6585610d25565b830182610e0c565b50505b505050565b600082821c905092915050565b6000610e9360001984600802610e75565b1980831691505092915050565b6000610eac8383610e82565b9150826002028217905092915050565b610ec582610908565b67ffffffffffffffff811115610ede57610edd610703565b5b610ee88254610cdf565b610ef3828285610e2f565b600060209050601f831160018114610f265760008415610f14578287015190505b610f1e8582610ea0565b865550610f86565b601f198416610f3486610d10565b60005b82811015610f5c57848901518255600182019150602085019450602081019050610f37565b86831015610f795784890151610f75601f891682610e82565b8355505b6001600288020188555050505b50505050505056fea26469706673582212200905497cc5c2d1cdb69f3e69065383927a4c37c0729f12ec9309a55ac7f2c3b364736f6c63430008130033",
  "immutableReferences": {},
  "source": "// SPDX-License-Identifier: MIT\r\npragma solidity ^0.8.0;\r\n\r\ncontract ParkingRental {\r\n    address public owner;\r\n\r\n    struct ParkingSpot {\r\n        uint256 id;\r\n        string location;\r\n        uint256 pricePerHour;\r\n        // uint256 availableHours;\r\n        bool isAvailable;\r\n        address renter;\r\n    }\r\n\r\n    mapping(uint256 => ParkingSpot) public parkingSpots;\r\n   \r\n\r\n    constructor() {\r\n        owner = msg.sender;\r\n    }\r\n\r\n    function addParkingSpot(\r\n        uint256 _id,\r\n        string memory _location,\r\n        uint256 _pricePerHour\r\n        // uint256 _availableHours\r\n    ) public {\r\n        require(msg.sender == owner, \"Only owner can add parking spots.\");\r\n        require(\r\n            !parkingSpots[_id].isAvailable,\r\n            \"Parking spot with this id already exists.\"\r\n        );\r\n        parkingSpots[_id] = ParkingSpot(\r\n            _id,\r\n            _location,\r\n            _pricePerHour,\r\n            // _availableHours,\r\n            true,\r\n            address(0)\r\n        );\r\n    }\r\n\r\n    function reserveParkingSpot(uint256 _id) payable public {\r\n        require(\r\n            parkingSpots[_id].isAvailable,\r\n            \"This parking spot is not available.\"\r\n        );\r\n        // require(\r\n        //     parkingSpots[_id].availableHours >= _hours,\r\n        //     \"Not enough hours available for this parking spot.\"\r\n        // );\r\n        require(\r\n            msg.value >= 10000 wei, // 1 ether\r\n            \"Incorrect payment amount.\"\r\n        );\r\n\r\n        parkingSpots[_id].isAvailable = false;\r\n        parkingSpots[_id].renter = msg.sender;\r\n        // parkingSpots[_id].availableHours -= _hours;\r\n    }\r\n\r\n    function releaseParkingSpot(uint256 _id) public {\r\n        require(\r\n            msg.sender == parkingSpots[_id].renter,\r\n            \"Only the renter can release the parking spot.\"\r\n        );\r\n        parkingSpots[_id].isAvailable = true;\r\n        parkingSpots[_id].renter = address(0);\r\n    }\r\n}",
  "sourcePath": "C:\\Parking\\parking\\webpack\\contracts\\ParkingRental.sol",
  "compiler": {
    "name": "solc",
    "version": "0.8.19+commit.7dd6d404.Emscripten.clang"
  },
  "schemaVersion": "3.4.13",
  "updatedAt": "2023-05-01T13:32:18.538Z",
  "networkType": "ethereum",
  "devdoc": {
    "kind": "dev",
    "methods": {},
    "version": 1
  },
  "userdoc": {
    "kind": "user",
    "methods": {},
    "version": 1
  }
}